:03000000020006F5
:10005F00750801750902750A04750B08750C107582
:0B006F000D20750E40750F800200038D
:0300030002009761
:10007A00AE82AF83EE4F60147C6E7D001CBCFF0124
:10008A001DEC4D70F71EBEFF011F80E8227F00EFB6
:10009A002408F98790900064C00712007AD0070FED
:0700AA00BF080040EA80E6F8
:06003500E478FFF6D8FD9F
:100013007900E94400601B7A009000B5780075A070
:1000230000E493F2A308B8000205A0D9F4DAF2754C
:02003300A0FF2C
:10003B007800E84400600A790075A000E4F309D861
:10004B00FC7800E84400600C7900900000E4F0A319
:04005B00D8FCD9FAFA
:0D00060075810F1200B1E582600302000356
:0400B1007582002232
:00000001FF
